:020000040000fa
:080000000002040000000000f2
:020000040000fa
:04000800f6030000fb
:020000040000fa
:04000c00f6030000f7
:020000040000fa
:04001000f6030000f3
:020000040000fa
:04001400f6030000ef
:020000040000fa
:04001800f6030000eb
:020000040000fa
:04001c00f6030000e7
:020000040000fa
:04002000f6030000e3
:020000040000fa
:04002400f6030000df
:020000040000fa
:04002800f6030000db
:020000040000fa
:04002c00f6030000d7
:020000040000fa
:04003000f6030000d3
:020000040000fa
:04003400f4020000d2
:020000040000fa
:04003800f6030000cb
:020000040000fa
:04003c00f6030000c7
:020000040000fa
:04004000f6030000c3
:020000040000fa
:040044002403000091
:020000040000fa
:04004800f6030000bb
:020000040000fa
:04004c00f6030000b7
:020000040000fa
:04005000f6030000b3
:020000040000fa
:04005400f6030000af
:020000040000fa
:04005800f6030000ab
:020000040000fa
:04005c00f6030000a7
:020000040000fa
:04006000f6030000a3
:020000040000fa
:04006400f60300009f
:020000040000fa
:04006800f60300009b
:020000040000fa
:04006c00f603000097
:020000040000fa
:04007000f603000093
:020000040000fa
:04007400f60300008f
:020000040000fa
:04007800f60300008b
:020000040000fa
:04007c00f603000087
:020000040000fa
:04008000f603000083
:020000040000fa
:04008400f60300007f
:020000040000fa
:04008800f60300007b
:020000040000fa
:04008c00f603000077
:020000040000fa
:04009000f603000073
:020000040000fa
:04009400f60300006f
:020000040000fa
:04009800f60300006b
:020000040000fa
:04009c00f603000067
:020000040000fa
:0400a0004a0300000f
:020000040000fa
:0400a4009a030000bb
:020000040000fa
:0400a800f60300005b
:020000040000fa
:0400ac00f603000057
:020000040000fa
:0400b000f603000053
:020000040000fa
:0400b400f60300004f
:020000040000fa
:0400b800f60300004b
:020000040000fa
:0400bc00f603000047
:020000040000fa
:0400c000f603000043
:020000040000fa
:0400c400f60300003f
:020000040000fa
:0400c800f60300003b
:020000040000fa
:0400cc00f603000037
:020000040000fa
:0400d000f603000033
:020000040000fa
:0400d400f60300002f
:020000040000fa
:0400d800f60300002b
:020000040000fa
:0400dc00f603000027
:020000040000fa
:0400e000f603000023
:020000040000fa
:0400e400f60300001f
:020000040000fa
:0400e800f60300001b
:020000040000fa
:0400ec00f603000017
:020000040000fa
:0400f000f603000013
:020000040000fa
:0400f400f60300000f
:020000040000fa
:0400f800f60300000b
:020000040000fa
:0400fc00f603000007
:020000040000fa
:04010000f603000002
:020000040000fa
:04010400f6030000fe
:020000040000fa
:04010800f6030000fa
:020000040000fa
:04010c00f6030000f6
:020000040000fa
:04011000f6030000f2
:020000040000fa
:04011400f6030000ee
:020000040000fa
:04011800f6030000ea
:020000040000fa
:04011c00f6030000e6
:020000040000fa
:04012000f6030000e2
:020000040000fa
:04012400f6030000de
:020000040000fa
:04012800f6030000da
:020000040000fa
:04012c00f6030000d6
:020000040000fa
:04013000f6030000d2
:020000040000fa
:04013400f6030000ce
:020000040000fa
:04013800f6030000ca
:020000040000fa
:04013c00f6030000c6
:020000040000fa
:04014000f6030000c2
:020000040000fa
:04014400f6030000be
:020000040000fa
:04014800f6030000ba
:020000040000fa
:04014c00f6030000b6
:020000040000fa
:04015000f6030000b2
:020000040000fa
:04015400f6030000ae
:020000040000fa
:04015800f6030000aa
:020000040000fa
:04015c00f6030000a6
:020000040000fa
:04016000f6030000a2
:020000040000fa
:04016400f60300009e
:020000040000fa
:04020800f6030000f9
:020000040000fa
:04020c00f6030000f5
:020000040000fa
:04021000f6030000f1
:020000040000fa
:04021400f6030000ed
:020000040000fa
:04021800f6030000e9
:020000040000fa
:04021c00f6030000e5
:020000040000fa
:04022000f6030000e1
:020000040000fa
:04022400f6030000dd
:020000040000fa
:04022800f6030000d9
:020000040000fa
:04022c00f6030000d5
:020000040000fa
:04023000f6030000d1
:020000040000fa
:04023400f6030000cd
:020000040000fa
:04023800f6030000c9
:020000040000fa
:04023c00f6030000c5
:020000040000fa
:04024000f6030000c1
:020000040000fa
:04024400f6030000bd
:020000040000fa
:04024800f6030000b9
:020000040000fa
:04024c00f6030000b5
:020000040000fa
:04025000f6030000b1
:020000040000fa
:04025400f6030000ad
:020000040000fa
:04025800f6030000a9
:020000040000fa
:04025c00f6030000a5
:020000040000fa
:04026000f6030000a1
:020000040000fa
:04026400f60300009d
:020000040000fa
:04026800f603000099
:020000040000fa
:04026c00f603000095
:020000040000fa
:04027000f603000091
:020000040000fa
:04027400f60300008d
:020000040000fa
:04027800f603000089
:020000040000fa
:04027c00f603000085
:020000040000fa
:04028000f603000081
:020000040000fa
:04028400f60300007d
:020000040000fa
:04028800f603000079
:020000040000fa
:04028c00f603000075
:020000040000fa
:04029000f603000071
:020000040000fa
:04029400f60300006d
:020000040000fa
:04029800f603000069
:020000040000fa
:04029c00f603000065
:020000040000fa
:0402a000f603000061
:020000040000fa
:0402a400f60300005d
:020000040000fa
:0402a800f603000059
:020000040000fa
:0402ac00f603000055
:020000040000fa
:0402b000f603000051
:020000040000fa
:0402b400f60300004d
:020000040000fa
:0402b800f603000049
:020000040000fa
:0402bc00f603000045
:020000040000fa
:0402c000f603000041
:020000040000fa
:0402c400f60300003d
:020000040000fa
:0402c800f603000039
:020000040000fa
:0402cc00f603000035
:020000040000fa
:0402d000f603000031
:020000040000fa
:0402d400f60300002d
:020000040000fa
:0402d800f603000029
:020000040000fa
:0402dc00f603000025
:020000040000fa
:0402e000f603000021
:020000040000fa
:0402e400f60300001d
:020000040000fa
:0402e800f603000019
:020000040000fa
:0402ec00f603000015
:020000040000fa
:0402f000f603000011
:020000040000fa
:0402f400f60300000d
:020000040000fa
:0402f800f603000009
:020000040000fa
:0402fc00f603000005
:020000040000fa
:04030000f603000000
:020000040000fa
:04030400f6030000fc
:020000040000fa
:04030800f6030000f8
:020000040000fa
:04030c00f6030000f4
:020000040000fa
:04031000f6030000f0
:020000040000fa
:04031400f6030000ec
:020000040000fa
:04031800f6030000e8
:020000040000fa
:04031c00f6030000e4
:020000040000fa
:04032000f6030000e0
:020000040000fa
:04032400f6030000dc
:020000040000fa
:04032800f6030000d8
:020000040000fa
:04032c00f6030000d4
:020000040000fa
:04033000f6030000d0
:020000040000fa
:04033400f6030000cc
:020000040000fa
:04033800f6030000c8
:020000040000fa
:04033c00f6030000c4
:020000040000fa
:04034000f6030000c0
:020000040000fa
:04034400f6030000bc
:020000040000fa
:04034800f6030000b8
:020000040000fa
:04034c00f6030000b4
:020000040000fa
:04035000f6030000b0
:020000040000fa
:04035400f6030000ac
:020000040000fa
:04035800f6030000a8
:020000040000fa
:04035c00f6030000a4
:020000040000fa
:04036000f6030000a0
:020000040000fa
:04036400f60300009c
:020000040000fa
:10040000afd821000e7f22000e01880000000000fe
:10041000000020000000e000020032000001200087
:100420002002880014000700340107000000e000eb
:1004300003003a0020e32000010020000200370002
:100440000000200001002000810f70000100320038
:1004500014000700000020000000e000020032004d
:10046000000002000000000048360200000000000a
:100470000040da000000fe004440a900e00920002e
:100480000000e0000300320000002000a00188000e
:100490004440a800000006008a1f78008b1f7800e7
:1004a0000000060091018800800478000000eb0045
:1004b0001a003700e284440032a0b4009905ba0063
:1004c000e284440032a0b4009906ba00e2844400f9
:1004d00032a0b4000006eb00476fde00fd07b2005b
:1004e000636ce10003003a00ebff07000000eb0043
:1004f0000a003700606ce10004003a00005deb0088
:100500008b05e900fdff3e00040037006168e10053
:10051000010032000086eb000b00070019c7ba008b
:100520001905ba000e04e00003003a000a00e000da
:10053000e0ff3a0000000600fe07b2009e018800be
:100540008a047800f5ff3700395dba008b05e900b1
:100550000c003200295dba008b05e900080032006a
:100560000c00e00003003a00e284440032a0b40032
:10057000f5ff370019ddba008b05e900faff3a00f4
:100580008904e800e184440032a0b40000000600c1
:10059000000000000000000000000000000000005b
:1005a000000000000000000000000000000000004b
:1005b000000000000000000000000000000000003b
:1005c000000000000000000000000000000000002b
:1005d000000000000000000000000000000000001b
:1005e00000000000000000003600f800809fbe0000
:1005f000829fbe00849fbe00869fbe003400f8002c
:1006000000002000a00188000000fa008460a9001a
:10061000750807000000e00003003200fa2b02001a
:1006200000000000000000000080fa003400f90023
:100630004f03be004f02be004f01be004f00be0080
:100640003600f900004006003600f800809fbe002a
:10065000829fbe00849fbe00869fbe003400f800cb
:1006600000002000a00188000000fa00d517070054
:1006700084e0a9000080fa003400f9004f03be00b6
:100680004f02be004f01be004f00be003600f90011
:10069000004006003600f800809fbe00829fbe002a
:1006a000849fbe00869fbe003400f800000020003a
:1006b000a00188000400fa000000eb001007980079
:1006c00087c0a90009003700b01180000040780001
:1006d000004f7800b04280008e80e8008001eb007f
:1006e000010178008e0078007010070090118000e2
:1006f000610060000000e000f3ff3a001e0090007f
:100700000000e00003003200fa2b020000000000ad
:10071000000000000080fa003400f9004f03be0022
:100720004f02be004f01be004f00be003600f90070
:10073000004006003600f800809fbe00829fbe0089
:10074000849fbe00869fbe003400f8000000200099
:10075000a00188000400fa000000eb0010079800d8
:1007600087e0a9000e003700c04280008e80e800bc
:10077000010178008e007800be100700e10f5000e4
:1007800004003a001e4078000000fb00a011880021
:100790000300370010002000d04288000500370019
:1007a0009111800000202000008060000000e00027
:1007b000edff32001e0090000000e0000300320058
:1007c000fa2b020000000000000000000080fa0088
:1007d0003400f9004f03be004f02be004f01be00bf
:1007e0004f00be003600f900004006000040da006d
:1007f0000000fe000a00fa00e20f500034003e0044
:1008000040ec8000e10f500003003200e20f500086
:1008100011003a000c003700032220000300e00022
:1008200001003a000040da002002e2000200350038
:100830002822ef0021e2a8002342ab000d003a007d
:100840002342a8000b003700032320000300e00030
:1008500001003a000040da003002e20002003500f8
:100860003822ef0031e2a8003342ab0001003a0029
:100870003342a800820178000b0037003102fb00f0
:10088000e10f500004003a002322ab00feff3a00c3
:1008900024118800030037003322ab00feff3a002a
:1008a000a41188008301e9000300e000f3ff3a008f
:1008b000e10f500003003a002302ab00feff3200bc
:1008c0000b0037003302ab00feff32000800370098
:1008d00033002000b3bf9f00c0bf9f00d1bf9f0067
:1008e000e2bf9f006a805700720307006fb997004c
:1008f000020078000080fa000000060000000500f9
:10090000839f68000100e00002003d0060001000cd
:10091000e08018000300e00002003d0060011100cb
:10092000e0811900050007004f00e00002003b00d5
:1009300060001000e0801800000006006022b8008f
:10094000060220000000d0008180d2000482d20084
:100950008582d2000000a0000202520083825a0069
:10096000030031000202420083824a000000a1001d
:100970000603e900f3ff3a0000000600800178005a
:1009800002003700b15978000201e9000200e000de
:10099000fcff3a00000006000c00fa00889fbe0031
:1009a00000047800f0ff2700d0bf9f008004eb0018
:1009b00099bf9f0088bf9f00a8bf9f00200c200008
:1009c000b0bf9f0078815700cfb09700708057006c
:1009d000100007000fb89700094878008fb89700fb
:1009e000088050004f04be000080fa00000006009e
:1009f000d0019000028151004240a9000300340060
:100a000010017800014978000208e8000100780030
:100a100000000600f6874700889fbe008a9fbe0040
:100a20008c9fbe008e1f780000057800a1b79f0044
:100a3000020778008004eb0090023700afb0970007
:100a40008100e800a1b79f0051c2b300814f500060
:100a500003003a00afb097000004eb00110037002c
:100a6000ba0090000000fb000168a30007003200fc
:100a700009017800800078000a007800dcff070098
:100a80000000e00005003a007c0237008a00780090
:100a900086020700e10f4000780232008904e80076
:100aa000760237000100780031417800d3c2b300ec
:100ab000834f51000c00320007003c00edc1510093
:100ac000834f51000a003200ebc14100834f5100b7
:100ad0000d003a000800370003c3b300834f5100f4
:100ae00009003a00060037000830a000edff37008b
:100af0000800a000ebff37000810a000e9ff370056
:100b00000820a000e7ff37000818a300010032000a
:100b10000800a1000838a300010032000820a1004d
:100b20008200fb000103b100e98f50000c003e0081
:100b3000000178008000eb006a08b900b201fb00f8
:100b40000303b10080804100020078009201fb00a5
:100b50000303b100e98f5100f7ff360006003700ac
:100b60008000eb00a3c2b300834f510002003a00a3
:100b7000ce0078000000e8008005eb00e2c2b30080
:100b8000904f110009003a0008e0a00064415100b4
:100b9000d04f1100030032000001780001027800fc
:100ba00006003700ce0578000000e800000178005c
:100bb000090037006a58b9008085410002007800ba
:100bc000b201fb000303b100e98f5100f9ff3600c9
:100bd00084007800f5ff370032407800a2b79f000c
:100be000c3c6b300834f5000250032000f003c0005
:100bf00032c6b300824f50008800320004003c002f
:100c00000004e000220232006b4151000f00370067
:100c100042c6b300824f50001700320065414100c8
:100c2000824f500094003a001300370032c7b300df
:100c3000824f50001b00320007003c00644151000d
:100c4000824f5000100032000241e800824f5000f5
:100c500089003a000f00370052c7b300824f50009e
:100c60008a00320063414100824f500082003a0006
:100c7000e0df9f0009003700e0df9f0085003700bc
:100c80000840a000d4ff3700e0df9f000860a0000c
:100c900080003700e0df9f000850a0000870a0002f
:100ca0007c003700e0df9f004e00780000067800ef
:100cb0000000e00001003a00ecc721000c017800c0
:100cc0000000eb00010037000000e800e24178007e
:100cd0000304e000fcff3a00800678000b00e0000f
:100ce000030032008d8f5500010031008b06780023
:100cf0008005eb008d8f5000010036008d8550007f
:100d0000680464002a003a00110037003a0090009d
:100d10000068a300070032000901780001022000ea
:100d20000a00780032ff07000000e00006003a00e9
:100d3000060037008a00780000022000db0107006f
:100d4000e10f4000010032008904e8008b05e90052
:100d50000b00e000edff3a008085eb001400370047
:100d60003a0090000068a300090032000c007800ef
:100d7000b000fb0000067800090178000a00780046
:100d80001bff07000000e00008003a0008003700e1
:100d90008c0078003100fb00010678008a007800a2
:100da000c2010700e10f4000010032008904e800a1
:100db0000d0078008006e9000000e000e8ff3a003e
:100dc0000800e000ad013200110037003a00900049
:100dd0000068a3000700320009017800010220002a
:100de0000a00780002ff07000000e00006003a0059
:100df000060037008a00780000022000ab010700df
:100e0000e10f4000010032008904e8008b05e90091
:100e10000b00e000edff3a00980137004e0178002a
:100e2000cf91de00c81ade004818dd004812de004f
:100e300004027000e4df9f000848a30008003200ad
:100e40000404e00006003200e14f420004003200da
:100e5000f4df9f0082e79f002d0020000200370092
:100e6000f2df9f001d002000e2fd2f000f01410076
:100e70000206e80099ff3700e0df9f00ecfd2f003d
:100e80000f0646001d00200094ff3700e0df9f00a2
:100e9000080cb30008017800020cb2007000640076
:100ea0000200e0000d003a000000e0000200320005
:100eb0004e06be00020037004e067800cfe6de0088
:100ec000e00f5600e08f5e000a003d003800b300de
:100ed00060061600e0861e00060037000000e000f5
:100ee000020032004e06be00020037004e067800b7
:100ef0008006eb000b00e00005003a008c857600d0
:100f00000bf0a7008b05ea008b05e900cf5dde0042
:100f100088017800030cb200e3b79f0000042000b2
:100f2000808f51002300320003003c000300e000ea
:100f3000080032002d003700000820006fb2970033
:100f4000800f52000d003200000c2000800f520074
:100f500026003a0062c8210010c0b30064014100bd
:100f6000b20f5600a28f5e001f0039000040e8005b
:100f7000ea4f5000f9ff3a001b00370010c0b300e1
:100f80000201200003002000820f5600838f5e00c4
:100f900015003900441add00cc11de008301720017
:100fa0004411dd000040e800e84f5000f6ff3a0031
:100fb0000d00370010c0b3008200200003002000a5
:100fc000820f5600838f5e0007003900431add0050
:100fd000cd11de00830172004311dd000040e80006
:100fe000eb4f5000f6ff3a00e0df9f006fd997000b
:100ff0000200fb008b0f500002003d00ebdf9f0062
:1010000003003700808f550001003d008005780007
:101010000100e000030032006300640001003200c0
:101020008100e90008e8a300050032008b8f500022
:10103000020034008b805000010037008000eb007c
:10104000efd997000300fb000002eb00d4b79f002c
:10105000808f50000200340000805000d0b79f0005
:101060000828a30040003200610164000818a300b2
:101070000f0032003a0090000068a3000600320022
:10108000b10220000200e000010032008180e8008f
:10109000090178000d003700b00220000200e000d6
:1010a000010032000080e8008a0078000e0037005e
:1010b0000200e000100032003a0090000068a30037
:1010c0000700320009017800010220000a007800c0
:1010d00047fe07000000e00006003a000600370067
:1010e0008a00780000022000f0000700e10f4000b5
:1010f000010032008904e8005fb097000000e000c2
:101100005a003200bcb79f00cdb79f008006780020
:101110003a0090000068a30007003200090178003f
:10112000010320000a00780031fe07000000e00003
:1011300006003a00060037008a007800000320000d
:10114000da000700e10f4000010032008904e800e6
:101150008d06e900eeff3a00ddb79f003fb697002d
:10116000cfb6970041003700dfb197000300e000e1
:101170001a0032000838a30018003a00bcb79f00dc
:10118000cdb79f00830678003a0090000068a30066
:101190000700320009017800010220000a007800ef
:1011a00013fe07000000e00006003a0006003700ca
:1011b0008a00780000022000bc000700e10f400018
:1011c000010032008904e8008d06e900eeff3a00d4
:1011d000ddb79f003fb69700cfb69700610164006e
:1011e0000818a3000f0032003a0090000068a30026
:1011f00006003200b10220000200e00001003200cf
:101200008180e800090178000d003700b00220005d
:101210000200e000010032000080e8008a0078004f
:101220000e0037000200e000100032003a0090008b
:101230000068a300070032000901780001022000c5
:101240000a007800eafd07000000e00006003a000e
:10125000060037008a007800000220009300070093
:10126000e10f4000010032008904e8000b03e900af
:101270006330b90000017800b2b79f004233dd004f
:1012800060c82100000343008e01780093b79f00df
:1012900008077800060478005c0037008b05e90039
:1012a000000420006fb29700800f52003800320017
:1012b00003003c000400e000080032003e0037005c
:1012c00000082000efb09700808f5000200032000f
:1012d000000c2000808f500037003a000e48a30019
:1012e000100032001802be000401be000c00be0057
:1012f000f4b79f0085bf9f0090fd0700e0df9f00cf
:101300000000fb00cf80de007fb297008fba97000d
:101310000401be00e90007000006560081865e0059
:101320000700370018017800110009000286d80074
:10133000a2002000110009000280d800e1df9f0018
:101340006fd997000243b000e2df9f001a00370018
:10135000d0c621000e58a30001003200c0c52100f4
:1013600061c82100810054000c01be008100e90029
:10137000030033008301d1000281d300fbff37005b
:10138000ef006100e0c07800e1df9f000a00370055
:101390000c00be00bfb197008301e90003003300d9
:1013a0008100d1000080d300fbff37006740600060
:1013b0000043b000e0df9f00ba0090006fda9700b2
:1013c0000400fb000168a300070032000901780057
:1013d000800078000a00780085fd07000000e0002a
:1013e00005003a00050037008a0078002f0007004a
:1013f000e10f4000010032008904e8003fb097008f
:1014000063005000b0b79f00640454000b00e0007c
:10141000a2ff3a000e0478001fb797000838a30017
:1014200016003200dfb097000100e0001300340026
:10143000010478003a0090000068a3000700320021
:1014400009017800010220000a00780068fd070009
:101450000000e00006003a00060037008a0078002d
:101460000002200011000700e10f400001003200df
:101470008904e8000804e900eeff3a002fb1970064
:1014800012407800e0df9f000004e0006bfd3a00ae
:10149000090078004f0778004f06be004f05be00d8
:1014a0004f04be006f01b10000000600889fbe001f
:1014b00001047800b80090008084eb000118a300bc
:1014c0003a003200180190000198a30002003a008f
:1014d0000200e00035003a000190a00031049800bd
:1014e00080047800f90fb2000200e00002003a0028
:1014f00028009000000c7800ea8f540005003a00a4
:101500000178a30003003a0088007800d000200092
:10151000e6ff070018009000d8009000810f5000ef
:101520000b0032000000e80010049800180078005a
:1015300009487800000ce80011c0b30020d8210051
:1015400001487800ea8f540018003a00050037007f
:1015500088007800094078001700070080047800b0
:1015600012003700380090000088a3000f003200fe
:1015700018019000a8009000480090009dfc070012
:1015800098009000810f5000040032003800900055
:101590000003b300300498008084eb000000eb00ef
:1015a0001004980028009000000c780009007800d2
:1015b0004f04be00000006000200fa00889fbe0033
:1015c000a0ff9f0001047800380090000068a3008d
:1015d00033003a00e200600005003a000003b30067
:1015e00030049800110498000080eb002e003700b2
:1015f000d80490000900e00006003a001200200024
:10160000e6805700480090007afc07001904980013
:1016100023003700a80090000100e00008003a0015
:1016200051d8210021049800010c780021002000ed
:1016300051049800110498000030a0003004980074
:1016400018019000a80090004800900069fc070075
:10165000280090008080eb0011049800aff89700fc
:1016600001487800000ce8002ff89700ea4f50007e
:101670000b003a00380090000088a30008003200f8
:1016800018019000a80090004800900059fc070045
:101690000000eb0010049800a8009000010c7800f6
:1016a000aff897000100fb004f04be000080fa0075
:1016b0000000060000c0da0000000600020ab900bf
:1016c000001bb9000200b800810042008100430005
:0416d0000000060010
:020000040000fa
:1016d400514300006f6e00007342000031000000af
:1016e40051500000726f000064420000320000009c
:1016f400514300006f6e000073420000330000008d
:1017040051500000726f0000644200003400000079
:1017140051500000726f0000644200003500000068
:10172400514300006f6e0000734200003600000059
:1017340046410000494c0000202300003100000015
:1017440046410000494c0000202300003200000004
:1017540046410000494c00002023000033000000f3
:1017640046410000494c00002023000034000000e2
:10177400256400006e730000206d00006178000095
:10178400206a0000697400007465000072000000a3
:101794004c4300004400000077770000772e0000df
:1017a4004672000065650000525400004f5300006b
:1017b4002e6f000072670000000000004254000019
:1017c400657300007431000000420000546500009d
:1017d4007374000032000000434f00004d540000b9
:1017e40078000000434f00004d52000078000000d4
:1017f400496e0000744d0000617400006800000030
:0c180400494400004c45000000000000ba
:020000040000fa
:101810001111000022220000333300004444000074
:101820005555000066660000777700008888000044
:1018300099990000aaaa0000bbbb0000cccc000014
:10184000dddd0000eeee0000cecd0000acab000010
:020000040000fa
:1018500096000000c8000000fa0000002c01000003
:101860005e01000090010000c2010000f4010000d0
:020000040000fa
:101870000c00fa0050079800980a07000000eb00df
:1018800030079800210037003e009000a1002000a2
:101890000008dd00000f78001715070010079800fa
:1018a00080418000e80047001e017800180507000d
:1018b0000000e0000200320010002000c04188005b
:1018c0000d1507009e0090000100500020079800b1
:1018d0002e0090009e0f50000200310010002000ea
:1018e000c04188001e017800ef0041002e009000ea
:1018f000808f50000200310010002000c04188009d
:101900003e0090000000e800300798003e00900084
:10191000e40f5000dcff34000000eb0030079800bb
:101920000c00370080418000e60047008001eb009a
:101930000001eb003d030700e10f50000200320000
:1019400010002000c04188003e0090000000e80028
:10195000300798003e009000e40f5000f1ff340083
:101960000000eb0030079800220037003e00900096
:10197000a10020000008dd00000f7800de14070041
:101980001007980080418000e60047008001eb00ce
:101990001e017800250307000000e000020032006d
:1019a00010002000c0418800d31407009e00900062
:1019b00001005000200798002e0090009e0f50005c
:1019c0000200310010002000c04188001e01780094
:1019d000ef0041002e009000808f50000200310087
:1019e00010002000c04188003e0090000000e80088
:1019f000300798003e009000e40f5000dbff3400f9
:101a00003a28ef00904180009a0e0700020037004c
:101a10004001200018130700d1418000500520002c
:101a2000808f5000faff3a00400120001213070097
:101a30003a28ef000000eb0030079800260037003e
:101a400080418000e80047000001eb00b00407007f
:101a5000e10f50000200320010002000c041880059
:101a600080418000e60047008001eb000001eb00b0
:101a7000ee020700e10f50000200320010002000cb
:101a8000c0418800d141800050052000808f500067
:101a900002003a0010002000c04188009041800000
:101aa000310020006e050700d14180005005200064
:101ab000808f500002003a0010002000c0418800d2
:101ac000904180008000eb00650507003e0090001b
:101ad0000000e800300798003e009000e40f50003e
:101ae000d7ff34000200370040012000e212070057
:101af000d141800050052000808f5000faff3a004d
:101b000040012000dc1207003a28ef000000eb0043
:101b1000300798000b00370080418000e800470044
:101b20000001eb007a040700e10f500002003200d0
:101b300010002000c04188003e0090000000e80036
:101b4000300798003e009000e40f5000f2ff340090
:101b500090418000470e070002003700400120003e
:101b6000c5120700d141800050052000808f500031
:101b7000faff3a0040012000bf1207003a28ef00a8
:101b80000000eb00300798002600370080418000fd
:101b9000e60047008001eb000001eb00a302070014
:101ba000e10f50000200320010002000c041880008
:101bb00080418000e80047000001eb00540407006a
:101bc000e10f50000200320010002000c0418800e8
:101bd000d141800050052000808f500002003a0063
:101be00010002000c041880090418000310020009a
:101bf0001b050700d141800050052000808f500058
:101c000002003a0010002000c0418800904180008e
:101c10008000eb00120507003e0090000000e80085
:101c2000300798003e009000e40f5000d7ff3400ca
:101c300002003700400120008f120700d1418000d0
:101c400050052000808f5000faff3a00400120002c
:101c500089120700a04180000000e800a041880030
:041c600005ff370045
:020000040000fa
:101c64005c080000001400000000000000080000f0
:101c74000200000000000000020800000200000052
:101c84000000000004080000020000000200000040
:101c9400ef00000006080000020000000000000041
:101ca400ae1c00002800000000000000241d0000fd
:101cb4000a000000000000002e1d00000a000000c1
:101cc40000000000080800000200000000000000fe
:101cd4000a0800000200000000000000381d000097
:101ce4000a00000000000000421d00000a0000007d
:101cf400000000000c0800000200000000000000ca
:101d04000e0800000200000000000000100800009f
:101d140002000000000000001208000002000000a1
:101d24000000000014080000020000000000000091
:101d3400160800000200000000000000180800005f
:101d440002000000000000001a0800000200000069
:101d5400000000001c080000020000000000000059
:101d64001e0800000200000000000000200800001f
:101d74000200000000000000fc1c00001400000031
:101d8400000000004c1d00000a00000000000000dc
:101d9400561d00000a000000000000002208000098
:101da40002000000000000002408000002000000ff
:101db40000000000601d00000a0000000000000098
:101dc40026080000020000000000000028080000af
:101dd40002000000000000002a08000002000000c9
:101de400000000002c0800000200000000000000b9
:101df4002e08000002000000000000006a1d000020
:101e04000600000000000000701d00000600000035
:101e140000000000761d0000060000000000000025
:101e24007c1d0000060000000000000030080000d7
:101e34000200000000000000320800000200000060
:101e44000000000034080000020000000000000050
:101e540036080000020000000000000038080000fe
:101e640002000000000000003a0800000200000028
:101e7400000000003c080000020000000000000018
:101e84003e080000020000000000000040080000be
:101e940002000000000000004208000002000000f0
:101ea40000000000440800000200000000000000e0
:101eb400460800000200000000000000480800007e
:101ec4000200000002000000010000004a080000b7
:101ed40002000000000000004c08000002000000a6
:101ee400000000004e080000020000000000000096
:101ef400500800000200000000000000520800002a
:101f0400020000000000000054080000020000006d
:101f140000000000101d000014000000000000007c
:101f240056080000020000000000000058080000ed
:101f340002000000000000005a0800000200000037
:101f4400000000005c1c00005200000002000000c1
:101f540030313200333435003637380039414200ed
:101f640043444500460030003132330034353600f6
:101f740037383900616263006465660000286e00ca
:101f8400756c6c002900000001000000000a0000cc
:101f94000000640000000000e803000000102700b7
:101fa4000000a0008601000040420f00008096005f
:101fb40098000000e1f5050000ca9a003b0000000b
:101fc400d61c00002600000002000000831d000053
:101fd40000831d000900000000020000851d0000b0
:101fe40000851d000e02010000000000000000003a
:101ff400000000000602020000000000d61c0000e1
:10200400821d00000600000000000000881d000082
:1020140002000000020000000100000000000000b7
:020000040000fa
:102024001600fa00200f980010002000000f78001e
:10203400500020001007980000012000200798009d
:102044000000eb003007980060002000650d0700d9
:10205400400798000041eb00210020001e0078009a
:102064009e0e0700ce009000800878004e0090007d
:10207400ae009000110098004e009000a1d62100ff
:102084002100980060002000560d070050079800ba
:102094004e009000900078005e00900001087800e7
:1020a4005e009000be009000110098005e00900059
:1020b40001d72100210098008002eb002e0a900035
:1020c400ce01900032072000a1b6280020ce2200c5
:1020d400e80b07008002eb000002eb00de01900039
:1020e4003207200021b72800c0e72200e10b0700d7
:1020f400600020003b0d0700600798000041eb00e2
:10210400210020001e007800740e0700ee009000ed
:10211400800878006e009000be00900011009800c6
:102124006e00900021d7210021009800600020005b
:102134002c0d0700700798006e0090009000780046
:102144007e009000010878007e009000ae009000b0
:10215400110098007e009000c1d621002100980053
:102164008002eb000002eb00ee0190003207200039
:10217400a1b7280020ce2200be0b07008002eb008e
:102184002e0a9000fe0190003207200021b828009a
:10219400c0e72200b70b070060002000110d070004
:1021a400000f98000041eb00210020001e00900069
:1021b4004a0e07008e089000800878000e089000f0
:1021c400ae009000110098000e08900041d7210045
:1021d4002100980060002000020d0700100f9800f5
:1021e4000e089000900078001e0890000108780006
:1021f4001e089000ae009000110098001e08900088
:10220400e1d62100210098008002eb000002eb00df
:102214008e09900032072000a1b82800c0e72200f0
:10222400940b07008002eb000002eb009e09900073
:102234003207200021b9280020ce22008d0b070090
:082244000080fa000000060012
:020000040000fa
:10224c001400fa00400798005207980063079800a2
:10225c0071079800040f9800150f980010002000cb
:10226c00000f7800ce009000110798000000eb00e2
:10227c00200798000e0890000000e00005003200d6
:10228c001e00900090109000001090000e0990001d
:10229c000089be001e0090004061900062479800cb
:1022ac001e00900021c0b300416098007e00900099
:1022bc00e20f500017003200e20f500005003e0004
:1022cc000000e0002e003200e10f5000060032004a
:1022dc002c003700e30f500017003200e40f5000c1
:1022ec001b003200270037001e00900000119000e8
:1022fc00901190005e009000ee00900000007100c4
:10230c00818071001e01900000119800111198003d
:10231c001c0037001e0090009010900000109000e0
:10232c0061004000e08048001e0190000011980000
:10233c0011119800130037001e0090005e019000f0
:10234c00ee01900002109800131098000d00370059
:10235c006e409000e24f5000060032001e009000cc
:10236c005e019000ee01900002109800131098008e
:10237c00040037000000eb00000f7800010037006c
:10238c00000000006e409000e14f50002d003a001c
:10239c00004180000000e00016003a001e00900092
:1023ac000080e800600d07001e009000b00890004f
:1023bc0080408000808f5000030036001e0090008b
:1023cc0030089000804088001e0090000081e800da
:1023dc001e009000300890006a00b9008000780060
:1023ec00e0ca210000804000820078005f0e0700e8
:1023fc00050037001e0090006c0040008000780043
:10240c0080d32100590e07001e009000b0089000e8
:10241c003040800030089000808f5000090036005a
:10242c001e0890000000e000040032001e0890001e
:10243c001100200001087800020037001000200075
:10244c00b04088001e0078000080fa0000000600f2
:020000040000fa
:10245c001000fa00300798004207980053079800c4
:10246c00610798007407980010002000000f780096
:10247c00be009000110798008b1107007e009000a1
:10248c000000e000050032001e009000901090004b
:10249c00001090007e0190000089be001e0090008c
:1024ac0040619000424798001e00900021c0b3008c
:1024bc00416098006e009000e20f5000170032004f
:1024cc00e20f500005003e000000e0002e0032003c
:1024dc00e10f5000060032002c003700e30f5000d3
:1024ec0017003200e40f50001b00320027003700a9
:1024fc001e00900000119000901190004e00900072
:10250c00de00900000007100818071001e019000bf
:10251c0000119800111198001c0037001e0090004b
:10252c00901090000010900061004000e080480086
:10253c001e01900000119800111198001300370033
:10254c001e0090004e019000de01900002109800d9
:10255c00131098000d0037004e409000e24f5000d1
:10256c00060032001e0090004e019000de0190002b
:10257c000210980013109800040037000000eb00c4
:10258c00000f780001003700000000004e40900062
:10259c00e14f50001e003a001e0090000080e80041
:1025ac00e10c07001e009000b008900080408000f5
:1025bc00808f5000030036001e0090003008900001
:1025cc00804088001e0090000081e8001e009000f2
:1025dc00300890006a00b90080007800e0ca210041
:1025ec000080400082007800e00d07001e00900083
:1025fc00b00890003040800030089000808f500070
:10260c0003003600fa2b020000000000000000005e
:10261c00091107001e0078000080fa000000060077
:020000040000fa
:10262c001200fa0050079800610798007207980092
:10263c00030f98000000eb00000f7800de00900004
:10264c001107980001003700000000001611070068
:10265c001e009000e00890001e0090007008900092
:10266c00808f5000030039000e089000e20f5000dc
:10267c001b003a000e099000ee0090001e00900026
:10268c0091040700200798001e009000100890008d
:10269c000000e000090032001e00900072004000b3
:1026ac00990907000000e0000a003200fa2b020032
:1026bc000000000000000000060037002e00900013
:1026cc000000e00003003200fa2b020000000000c2
:1026dc0000000000d8100700100020003d0037005b
:1026ec007e0090000000e00003003a00d2100700ca
:1026fc000000eb00370037001e0078000000e000ff
:10270c0004003a0066004700541107001000200036
:10271c00000f7800c810070099110700e21007009d
:10272c001e00900020609000e14f400003003a0032
:10273c001e0090008040eb00216098001e0090006d
:10274c0030609000e14f400003003a001e00900002
:10275c008040eb0031609800b7100700ee00470096
:10276c0066004700300907000000e00015003a0041
:10277c001e009000fb0f07000000e0000d0032006f
:10278c00fe0090001e00900068004000e010070062
:10279c001e009000ec080700f60307000000e000a4
:1027ac00a9ff3a00fa2b0200000000000000000014
:1027bc00a6ff37001e009000e3080700ed0307009a
:1027cc00a2ff37001e009000df080700e903070096
:0c27dc000000eb000080fa000000060086
:020000040000fa
:1027e8000a00fa000000eb00000f780000418000aa
:1027f8000000e0005e003a00704080000000e80041
:10280800100798009e009000714088001e009000fc
:102818000000e0000a003a004140800021079800cb
:102828005040800040408800ae0090005140880031
:10283800c04080000000e800c04088000010070089
:10284800e04080009e009000808f50003c003900de
:1028580001003700000000004040800010007800b0
:102868000000e00003003a000080eb00e040880030
:102878003300370040408000300090003000900066
:10288800300798003e0090009000900041079800a3
:102898009e0090004e009000808f50000300310091
:1028a800ce009000e1408800250037003e009000ef
:1028b8000080e8001d0c07003e00900020089000f2
:1028c8000000e000030032003e0090006c00400071
:1028d800160c07003e009000b00890008040800071
:1028e800808f5000030036003e00900030089000b2
:1028f800804088003e0090000081e8003e00900083
:10290800300890006a00b90080007800e0ca210011
:102918000080400082007800150d07003e009000fe
:10292800b00890003040800030089000808f500040
:10293800c8ff390010002000000f7800c6ff3700dc
:1029480030408000300890006a00b90080007800ac
:10295800e0ca21000080400010007800e10f50001c
:102968000600360010002000000f78000300370032
:10297800a04080000000e800a0408800b04080002f
:102988000000e0000200320010002000000f780074
:0c2998001e0078000080fa00000006001d
:020000040000fa
:1029a4001200fa006007980071079800020f98005f
:1029b4000000eb00000f7800ee0090001107980073
:1029c4000300370000000000010037000000000091
:1029d400371007001e009000e008900021079800bf
:1029e4002e0090000000e000180032001e0090004d
:1029f400b000900031079800fe0090001e00900087
:102a0400580c07001e009000be0090003100980092
:102a14001e009000100890000000e0000800320042
:102a24001e00900072004000b90807000000e0009a
:102a340003003200fa2b0200000000000000000036
:102a4400ff0f070010002000410037000e0890001f
:102a54000000e00003003a00f90f07000000eb005b
:102a64003b0037001e0078000000e00004003a003c
:102a7400680047007b10070010002000000f78005a
:102a8400ef0f0700c0100700091007001e00900098
:102a940020609000e14f400003003a001e009000c7
:102aa4008040eb00216098001e0090003060900090
:102ab400e14f400003003a001e0090008040eb000c
:102ac40031609800de0f0700f000470068004700ff
:102ad400570807000000e00015003a001e009000af
:102ae400690f07000000e0000d0032008e0890001e
:102af4001e00900072004000071007001e009000a6
:102b0400130807001d0307000000e000adff3a00b2
:102b1400fa2b02000000000000000000acff3700a8
:102b24001e0090000a08070014030700a8ff3700de
:102b34001e00900006080700100307001e00900006
:102b4400510f07000000e000a0ff32000000eb007e
:082b54000080fa0000000600f9
:020000040000fa
:102b5c000a00fa00200798003107980042079800f5
:102b6c00ae0090001107980011028000f0f12f00c8
:102b7c00008060000050a0001002880000000000df
:102b8c00000000001e009000600890000000e000b3
:102b9c0016003a004e0090000000e0000c003200dd
:102bac001e00900072004000800078004e009000e3
:102bbc00a50b070011028000f0f12f0000806000cf
:102bcc001002880000000000c0ff2f004b003700ef
:102bdc0011028000f0f12f000080600010028800cc
:102bec00000000000000eb004400370011028000e0
:102bfc00f0f12f000080600010028800000000003f
:102c0c0011028000f0f12f00008060000050a00045
:102c1c001002880000000000000000001e00900060
:102c2c00600890000000e0002c0032001e009000b4
:102c3c00b00090001e0090000010900080804000ba
:102c4c001e009000310098001e009000b000900013
:102c5c001e00900010009000808f5000040039007e
:102c6c001e009000900078001e009000310098002b
:102c7c001e009000600890008000e9001e0090008b
:102c8c00610898001e009000801090001e009000bb
:102c9c003000900001017800800078003e00900028
:102cac0033f7070010002000000f78001e00900082
:102cbc00400090000000e0000a0032001e0090006e
:102ccc0068004000ba0c07000000e000050032006c
:102cdc00b0ff2f00000f7800020037000000eb005f
:102cec00000f780011028000f0f12f0000806000ce
:102cfc0010028800000000001e0078000080fa001e
:042d0c0000000600bd
:020000040000fa
:102d10001000fa00500798006107980072079800a9
:102d20000000eb00000f7800de0090001107980013
:102d30000300370000000000010037000000000021
:102d40005c0f07001e009000e0089000210798002b
:102d50002e0090000000e00016003200ee0090000f
:102d60001e009000800b07002e0090008000e900fc
:102d70001e009000610898001e0090004000900026
:102d80000000e000080032001e00900068004000d3
:102d9000e00707000000e00003003200fa2b020009
:102da0000000000000000000260f070010002000b7
:102db000410037007e0090000000e00003003a0070
:102dc000200f07000000eb003b0037001e007800da
:102dd0000000e00004003a0066004700a20f070070
:102de00010002000000f7800160f0700e70f070003
:102df000300f07001e00900020609000e14f40005f
:102e000003003a001e0090008040eb002160980013
:102e10001e00900030609000e14f400003003a0037
:102e20001e0090008040eb0031609800050f070005
:102e3000ee004700660047007e0707000000e00044
:102e400015003a001e009000900e07000000e00000
:102e50000d003200fe0090001e0090007200400045
:102e60002e0f07001e0090003a07070044020700db
:102e70000000e000afff3a00fa2b02000000000063
:102e800000000000aeff37001e0090003107070071
:102e90003b020700aaff37001e0090002d07070025
:102ea000370207001e009000780e07000000e000c7
:102eb000a2ff32000000eb000080fa0000000600d4
:020000040000fa
:102ec0000e00fa0050079800610798000000eb0020
:102ed000000f7800de009000110798000300370013
:102ee000000000000100370000000000f10e0700a4
:102ef0001e009000e0089000210798002e0090002e
:102f00000000e000130032002e0090008000e90075
:102f10001e009000610898001e0090004000900084
:102f20000000e000080032001e0090006800400031
:102f3000780707000000e00003003200fa2b0200cf
:102f40000000000000000000be0e0700100020007e
:102f5000410037006e0090000000e00003003a00de
:102f6000b80e07000000eb003b0037001e007800a1
:102f70000000e00004003a00660047003a0f070036
:102f800010002000000f7800ae0e07007f0f070032
:102f9000c80e07001e00900020609000e14f400026
:102fa00003003a001e0090008040eb002160980072
:102fb0001e00900030609000e14f400003003a0096
:102fc0001e0090008040eb00316098009d0e0700cd
:102fd000ec00470066004700160707000000e0000d
:102fe00015003a001e009000280e07000000e000c7
:102ff0000d003200ee0090001e00900072004000b4
:10300000c60e07001e009000d2060700dc01070074
:103010000000e000b2ff3a00fa2b020000000000be
:1030200000000000b1ff37001e009000c906070035
:10303000d3010700adff37001e009000c506070052
:10304000cf0107001e009000100e07000000e000f6
:10305000a5ff32000000eb000080fa00000006002f
:020000040000fa
:103060000c00fa0040079800510798000000eb00a0
:10307000000f78005e009000e30f50000200360061
:1030800030002000500798008a0e07004e00900084
:103090000000e00002003a003040800001003700ec
:1030a0004e009000100798001e009000b00890009d
:1030b00021079800ae0090005e009000808f5000c5
:1030c00048003200de0090002e009000808f5000fb
:1030d0000c003600304080009e009000808f500031
:1030e0000e00320030408000b00890005e0090007a
:1030f000808f500009003e0010002000000f780073
:1031000006003700304080009e009000808f500005
:1031100002003a0010002000000f78001e0090000e
:10312000b0089000310798001e009000de0090006b
:10313000310898001e009000600090000000e00040
:10314000040035005e009000e40010001e009000b6
:10315000610098001e009000500190003e00900019
:103160006a00b90080007800e0ca210000804000b9
:10317000800f510015003a001e0090000080e8000a
:10318000ec0907001e009000b0089000804080000d
:10319000808f5000030036001e0090003008900021
:1031a000804088001e0090000081e8001e00900012
:1031b000300890006a00b90080007800e0ca210061
:1031c0000080400082007800eb0a07001e007800b3
:1031d0000000e00003003200fa2b020000000000b3
:1031e00000000000170e07000080fa000000060033
:020000040000fa
:1031f0000e00fa0010079800210798003207980087
:10320000430798005407980065079800290e0700a7
:103210003040800040609000e24f500022003200b9
:103220003440800004119000941190001e00900022
:10323000ae0090000080ea008180ea0082027800ff
:103240000301780080017800010078008382620029
:10325000000061008000eb00c000dd0000002000e5
:103260000001be006128b800000171008181710079
:1032700002129800131298003040800011c0b30071
:10328000416098006e0090000000e00006003200ef
:10329000110020006e009000a5080700fa2b020024
:1032a0000000000000000000e60d0700010e07000e
:1032b0005e0090000000e000050032003040800019
:1032c00090109000001090005e0190000089be00f8
:1032d0003040800040609000e24f50000300320018
:1032e0000000eb00000f7800180037003440800029
:1032f00004119000941190003e009000ce009000c8
:103300000080ea008180ea008202780003017800f0
:103310008001780001007800838262000000610073
:103320008000eb00c000dd00000020000001be00b6
:103330006128b800000171008181710002129800bb
:103340001312980010002000000f78003040800019
:103350008040eb0041609800ba0d07001e00780025
:083360000080fa0000000600e5
:020000040000fa
:103368001400fa00200798003107980042079800d7
:10337800530798006407980075079800060f98008f
:10338800170f98001e089000c008900011079800b9
:103398001e089000c00890004e019000f0ff270022
:1033a8000000410000004000808040001e0890009e
:1033b800710898000000eb00000f78000d0037003e
:1033c8003e0090001e004000904078001e089000cb
:1033d8001e0040007a004000014878003e0090003e
:1033e8001e004000104078000004e0000500320094
:1033f8001e0fe8001e007800e30f5000f0ff3600b3
:1034080001003700000000001e0890008040eb001b
:10341800515898007e009000e30f500002003600db
:1034280030002000700798001e089000fe009000f1
:10343800310898001e0890000080e800440e07003c
:103448001e0890006c004000410e07001e08900006
:103458009e089000410098007e009000e400100053
:103468001e089000610098001e0890009e089000b9
:10347800110898001e0990006000b800001198001b
:10348800111198001e0890008040eb0041609800e0
:103498006e019000ae0090001e009000a901070088
:1034a800800078001e089000010878000e0890003f
:1034b8000000e000030032000e0890009e08900013
:0c34c800010878000080fa0000000600f7
:020000040000fa
:1034d4000400fa00070e070061418000010050005b
:1034e4007041880049003700504180000000e80026
:1034f40050418800704180000000e900704188005c
:10350400504180000000e00039003a001141800081
:10351400010f780020418000104188009e0078004f
:1035240021418800330037001041800030009000b2
:1035340030009000100798001e009000900090004a
:1035440050418000808f50002f003e001102800007
:10355400f0f12f00008060000050a00010028800ed
:1035640000000000000000001e0090000080e80041
:10357400ef0807001e009000200890000000e00003
:10358400030032001e0090006c004000e8080700b1
:1035940011028000f0f12f0000806000100288000a
:1035a400000000001e009000b00890004041800020
:1035b400808f5000030036001e00900030089000f9
:1035c400404188001e0090000081e8001e00900029
:1035d400300890006a00b90080007800c0cf210054
:1035e4000080400082007800e209070001003700f3
:1035f4000000000010418000100078000000e0008e
:10360400c9ff3a000100370000000000704180004b
:103614000000e000b4ff3a0050418000604188009f
:083624000080fa00000006001e
:020000040000fa
:10362c000a00fa002007980031079800420798001a
:10363c00ae0090001107980011028000f0f12f00ed
:10364c00008060000050a000100288000000000004
:10365c00000000001e009000420c07000000e0007b
:10366c00160032004e0090000000e0000c0032000a
:10367c001e00900068004000800078004e00900012
:10368c00f108070011028000f0f12f0000806000ab
:10369c001002880000000000c0ff2f00330037002c
:1036ac0011028000f0f12f000080600010028800f1
:1036bc00000000000000eb002c003700110280001d
:1036cc00f0f12f0000806000100288000000000064
:1036dc0011028000f0f12f00008060000050a0006b
:1036ec001002880000000000000000001e00900086
:1036fc00e00890001e00900070089000808f500031
:10370c00120031000001eb00be0090001e00900082
:10371c006d00070010002000000f78001e009000c4
:10372c00100890000000e0000a0032001e0090001b
:10373c00720040001e0a07000000e0000500320085
:10374c00b0ff2f00000f7800020037000000eb00e4
:10375c00000f780011028000f0f12f000080600053
:10376c0010028800000000001e0078000080fa00a3
:04377c000000060043
:020000040000fa
:103780000600fa000000eb00000f78000000eb00dc
:1037900010079800c70c0700004180000000e900f6
:1037a00000418800004180000000e00045003a0030
:1037b000604080000000e00042003200210037003d
:1037c000f0e9800030009000000f78009e00780043
:1037d0006c804000570807001e80e800550807006d
:1037e0001e007800b008900080408000808f50005c
:1037f000030036001e0078003008900080408800ea
:103800001e81e8001e007800300890006a00b900b0
:1038100080007800e0ca210000804000820078002b
:10382000550907001e007800b00890003040800065
:1038300030089000808f50000200390010002000f6
:10384000b0408800c0e980000000e000dcff3a00e2
:103850001e0078000000e00001003200fa0b0700b3
:10386000a1408000210798002e0090000000e00099
:103870000c003200dcfb07000000e0000200320018
:1038800010002000b04088002e0090000000e900e9
:10389000200798002e0090000000e000f5ff3a009d
:1038a0001428ef00b04080000000e0000500320066
:1038b0001000200010079800fa2b02000000000002
:1038c000000000005f0c07001e0090000080fa005e
:0438d00000000600ee
:020000040000fa
:1038d4000a00fa0020079800310798004207980070
:1038e4000000eb00100798002e009000e008900004
:1038f400010f78002e009000001090000000e000fe
:10390400400032004e0090000000e00019003a0030
:103914002e009000801090002e0090002000900057
:1039240001017800be00900013f407002e009000ff
:10393400a00090002e0090000010900080804000b5
:103944002e009000210098002e009000a00090000e
:103954002e00900010009000808f50002900390044
:103964002e009000900078002e0090002100980016
:10397400240037002e009000801090002e0090004c
:103984003000900001017800be009000faf30700b7
:103994002e009000b00090002e00900000109000c7
:1039a4000000ea00808040002e0090003100980062
:1039b4002e009000b00090002e00900010007800bf
:1039c400808f5000080031002e009000900090007d
:1039d4002e009000001090000000ea00808040005b
:1039e4002e009000310098004e009000e20f50002d
:1039f40004003a001e0078000000e00001003200dc
:103a04001e0fe9009e00e8002e0090006108980057
:0c3a14001e0090000080fa000000060078
:020000040000fa
:103a20000a00fa0020079800310798004207980022
:103a3000c0012000ec060700100798001e0090004f
:103a40000000e0003c003200304180000000e00057
:103a500003003a009e00900031418800150a0700db
:103a60003e009000e10f50000200360010002000e0
:103a7000300798001e0090008000eb00510898006d
:103a80001e009000be009000310898001e009000bb
:103a9000ce009000410898001e009000ae009000fb
:103aa000010878001e0090000080e800aa0c0700c2
:103ab0001e0090006c004000a70c07001e00900044
:103ac0009e009000410098001e0090009e00900013
:103ad000110898003e009000e20010001e009000c7
:103ae000610098001e009000b008900040418000e6
:103af000808f5000030036001e00900030089000b8
:103b0000404188001e0090000081e8001e009000e7
:103b1000300890006a00b90080007800c0cf210012
:103b20000080400082007800930807001000200009
:103b3000000f7800020037000080eb00000f7800d3
:0c3b40001e0078000080fa000000060063
:020000040000fa
:103b4c002a00fa00201798003117980042179800a5
:103b5c00e400470082c028000f000900b21878006a
:103b6c00be109000110798002e1090001e019000be
:103b7c00020878002e1090000080e80020179800b2
:103b8c002e1090008000eb00010878002e109000a1
:103b9c000080e800201798002e1090008000eb00a9
:103bac00010878002e1090000080e8002017980083
:103bbc00ce1090002e109000010878002e1090006e
:103bcc000080e800201798000000eb00000f780040
:103bdc000a0037001e00780000004000000047007b
:103bec00a00090002e109000010878002e1090007c
:103bfc000080e800201798001e0fe8001e007800d7
:103c0c00ef0f5000f3ff3600210280002e109000c1
:103c1c00010878002e1090000080e8002017980012
:103c2c0034c0bf008080fb002e109000010878008b
:103c3c002e1090000080e800201798002e109000a5
:103c4c008000eb00010878002e1090000080e80046
:103c5c00201798002e1090000080fa00000006003b
:020000040000fa
:103c6c000800fa00300798000000eb00450307003d
:103c7c001e0c0700000f78000000eb0020079800d6
:103c8c0050052000d041880080418000e4004700ae
:103c9c008001eb00f20a200061fa07000000e0004e
:103cac000200320010002000c04188000f0c0700f9
:103cbc001e005000100798009e009000e00a2000a3
:103ccc00808f500002003e0010002000c041880090
:103cdc009e009000e00b2000808f50000200360008
:103cec0010002000c041880050052000d041880001
:103cfc000000eb0023030700fc0b0700000f78000b
:103d0c0050052000d041880080418000e40047002d
:103d1c00f20a2000fbfb07000000e000020032006a
:103d2c0010002000c0418800f00b07001e0050005e
:103d3c00100798009e009000e00a2000808f500031
:103d4c0002003e0010002000c04188009e00900040
:103d5c00e00b2000808f5000020036001000200085
:103d6c00c041880050052000d0418800b04180003f
:0c3d7c000000e800b0418800bbff3700e9
:020000040000fa
:103d88000600fa0010079800210798001e0090000e
:103d980050089000e1122000810f500019003200f5
:103da800e1122000810f500003003e000000e000f7
:103db8000800320036003700f1122000810f500051
:103dc8001c00320021142000810f500030003a00fe
:103dd8000000000030428000e40047000001eb00d2
:103de80010fe0700000f78001e007800e40f400066
:103df80009003a001e009000e112200051089800c6
:103e08002300370030428000e40047000001eb0047
:103e180004fe0700000f78001e007800e50f400040
:103e280006003a001e009000f11220005108980088
:103e38001700370010002000000f78001e007800df
:103e4800e10f5000010032004828ef002e009000da
:103e58008000400080c228000080400010007800e8
:103e68000000e000070032002e00900080004000b3
:103e780080c2280000804000100078008000eb001d
:103e8800f20607001e009000211420005108980037
:083e98000080fa0000000600a2
:020000040000fa
:103ea0000a00fa00400798000000eb002007980085
:103eb00000d12100300798000000eb00000f7800cf
:103ec0008d0b0700100798000e80e80081bb2000d2
:103ed000bf010700c6070700e10f500006003200cf
:103ee00010002000000f780082002000a1b92800f7
:103ef00000d12100a1f20700150b0700e10f5000cf
:103f00000600320010002000000f78008200200020
:103f100021ba280000d1210098f207009508070077
:103f2000e10f50000600320010002000000f780062
:103f300082002000a1ba280000d121008ff20700e2
:103f400026010700e10f500006003200100020009b
:103f5000000f78008200200021bb280000d1210042
:103f600086f207001e0078000000e0000c003a0016
:103f700061428000e00320000088b90080007800e2
:103f800000e4230000804000801f7800a0bb2800d0
:103f9000801f780000d121007ff20700e4875700de
:103fa000a0428000e40047008001eb000081eb00ac
:083fb0009ef90700c4ff370071
:020000040000fa
:103fb8000a00fa003007980041079800be009000f8
:103fc800010f78000000eb00100798001e00780031
:103fd800c0609000414798001e00780021c0b300df
:103fe800416098001e00780090109000001090002a
:103ff80061004000e08048001e0178000011980030
:10400800111198004e409000e14f50002b003a00eb
:10401800004180000000e00014003a001e80e80023
:10402800420607001e007800b0089000804080001b
:10403800808f5000030036001e0078003008900082
:10404800804088001e81e8001e007800300890003b
:104058006a00b90080007800e0ca210000804000b2
:104068008200780042070700050037009e007800ac
:104078006c8040008000780080d321003c07070056
:104088001e007800b0089000304080003008900092
:10409800808f5000090036004e0090000000e000bc
:1040a800040032004e009000110020000108780042
:1040b8000200370010002000b04088000080fa009d
:0440c80000000600ee
:020000040000fa
:1040cc000600fa0010079800210798009e00900047
:1040dc00010f7800740a07001e00780010017800a8
:1040ec001e007800f00890001e0078000010900070
:1040fc000088b90000007800800041001e007800a4
:10410c00110098001e0078008000eb0061089800f8
:10411c001e007800900078001e00780021009800a6
:10412c001e007800100178001e00780070089000c6
:10413c008000e9001e007800001090000088b90093
:10414c0000007800800041001e00780031009800cb
:10415c001e00780080c0eb00216098001e007800e3
:10416c0080c0eb00316098002e0090000000e00051
:10417c000d003a001e007800400090000000e000a6
:10418c000f0032009e00780068804000de020700bd
:10419c000000e0000a003200fa2b020000000000d0
:1041ac0000000000060037009e0078006880400088
:1041bc00570807009e0078007280400054080700e2
:1041cc001d0a0700100020000080fa000000060005
:020000040000fa
:1041dc000a00fa002007980031079800420798005f
:1041ec00ae009000110798001e009000600890002f
:1041fc000000e000310032001e009000b000900082
:10420c001e00900000109000808040001e00900066
:10421c00310098001e009000b00090001e0090002d
:10422c0010009000808f5000040039001e00900098
:10423c00900078001e009000310098001e00900045
:10424c00600890008000e9001e0090006108980052
:10425c001e009000801090001e0090003000900016
:10426c0001017800800078003e009000c0f107004a
:10427c004e009000100078000000e0000c003a00a6
:10428c001e009000400090000000e000080032008a
:10429c001e00900068004000450707000000e00089
:1042ac00030032004e00900011002000010878003d
:1042bc0010002000000f7800020037000000eb0017
:1042cc00000f78001e0078000080fa000000060045
:020000040000fa
:1042dc001000fa00b00420001007980050002000d5
:1042ec002007980070002000300798002100200063
:1042fc000000eb0057fb07007c0a07004007980002
:10430c00f00a2000d9080700780a07005007980027
:10431c00de0090004e009000808050003e00900027
:10432c00f00ab000808f5000020036001000200010
:10433c00c04188006d0a070050079800de0090000d
:10434c00710798000000eb00000f78001700370091
:10435c009e0078001e0090000088b9008000780054
:10436c005e00900000804000600798006e004700df
:10437c009e009000930007005c0a0700ee0090007e
:10438c00810050003e009000f00ab000808f500079
:10439c000200360010002000c0418800a0418000bf
:1043ac000000e800a04188001e0fe8002e009000dd
:1043bc009e007800808f5000e5ff3900110020002e
:1043cc000000eb0023fb07000080fa000000060051
:020000040000fa
:1043dc000400fa0010002000000f78000000eb0031
:1043ec0010079800330037001e009000800040003a
:1043fc00a0d6210000804000900078001e009000a4
:10440c000001400060d7210000004100100078003e
:10441c00808f500002003a000000eb00000f780083
:10442c001e00900080004000a0d6210000804000bb
:10443c00900078001e0090000001400060d7210021
:10444c0000004100010878001e0090008000400030
:10445c0000d7210000804000900078001e009000e2
:10446c0000014000c0d7210000004100100078007e
:10447c00808f500002003a000000eb00000f780023
:10448c001e0090008000400000d7210000804000fa
:10449c00900078001e00900000014000c0d7210061
:1044ac0000004100010878001e0090000000e800a8
:1044bc00100798001e009000e20f5000caff340055
:0c44cc001e0078000080fa0000000600ce
:020000040000fa
:1044d8000200fa00000f78007409070060408000ad
:1044e8000000e80060408800304080000000e000e4
:1044f80007003a009e007800314088006040800044
:10450800e10f50000d003a008e0607000b0037003f
:10451800904080000000e00008003a003040800031
:10452800b00890001e00780030089000808f50007e
:1045380002003e009e00780031408800d040800094
:104548000000e800d04088001e007800b008900005
:1045580080408000808f5000030036001e007800e5
:1045680030089000804088001e81e8001e00780016
:10457800300890006a00b90080007800e0ca210085
:104588000080400082007800f90507002b09070029
:10459800904080000000e0000900320030408000b8
:1045a800b00890001e00780030089000808f5000fe
:1045b80003003100fa2b0200000000000000000098
:0845c8000080fa00000006006b
:020000040000fa
:1045d0000c00fa0040079800510798000000eb001b
:1045e000000f7800e909070071408000110798006a
:1045f0004e009000900078005e0090000080400027
:10460000200798004e009000900078001e00900057
:10461000808f50000c0036004e0090009000780013
:104620002e009000808f500012003600ae009000e7
:104630001e009000808f50000e00360010002000f9
:10464000000f78000b0037004e00900090007800bb
:104650002e009000808f500004003e00ae009000bd
:104660001e009000808f50000200360010002000d5
:10467000000f78004e009000ae0090000108780016
:104680001e0078000000e00005003200ae0090003f
:104690001e009000008050008000eb00a403070083
:1046a00037fc0700300798003e0090000000e00053
:1046b00003003a00fa2b0200000000000000000096
:0846c0000080fa000000060072
:020000040000fa
:1046c8000a00fa00400798000000eb001007980065
:1046d8000000eb00200798000100370000000000f0
:1046e80010c4b300004f780011003700004280006a
:1046f800e60047000081eb00c10807000000e00069
:104708000a0032006e4090009e4f500004003a00ac
:10471800104280000000e800bf07070003003700d0
:104728001000200010079800050037001e4fe80011
:1047380080c5b3009e40780080cf5000ebff340066
:10474800104280000000e8008000eb0055070700d9
:104758001e009000e10f50000f003a0004003700df
:1047680000428000e60047000081eb00a408070033
:10477800ee40900080c5b30080cf5000f8ff3a00ab
:104788002e0090000000e800200798000000eb00d1
:1047980010079800d2ff37002e009000e10f50005c
:1047a800ceff3c00204280000000e8002042880044
:0447b800cbff3700fc
:020000040000fa
:1047bc000a00fa00400798000000eb00000f780098
:1047cc00ce00900011079800010037000000000097
:1047dc00b007200001002000200798003107980046
:1047ec002e019000be019000704429003100200081
:1047fc000200400083804800200798003107980091
:10480c002e009000be009000d2ff2f000289b9004c
:10481c00020178008081eb000382b90084017800ea
:10482c0003014100d3ff2f000300b8000101410038
:10483c008200780020079800310798002e00900025
:10484c00be009000720020000300200029f0070039
:10485c0020079800310798002e019000be019000af
:10486c00b0712700e1ff2f00800f5100818f59009c
:10487c000200320010002000000f78001e007800ab
:10488c000000e000d1ff3a00870807001e009000ee
:10489c00110020000108780067080700ccff3700e2
:020000040000fa
:1048ac001000fa0040079800510798006207980022
:1048bc0073079800ce009000110798000000eb00e1
:1048cc00200798001e009000e00890001e00900049
:1048dc0070089000808f5000030039007e0090001b
:1048ec00e20f500022003a001e009000b0609000d1
:1048fc00614798007e019000de0090001e00900041
:10490c00f1fb07006e409000e14f400010003a00b0
:10491c001e009000100890000000e0001100320012
:10492c001e00900072004000f70007000000e0003d
:10493c000c0032006e0090000000e0000900320014
:10494c006e0090001100200001087800050037006f
:10495c006e4090000040e800804078001e009000ff
:10496c003160980010002000000f78000200370022
:10497c000000eb00000f78001e0078000080fa00a9
:04498c000000060021
:020000040000fa
:104990000400fa0010079800460807001e00900067
:1049a0000000e00002003a003040800001003700c3
:1049b0001e009000000f78001e80e800dd03070055
:1049c0001e007800200890000000e0000300320084
:1049d0009e0078006c804000d60307001e80e8002f
:1049e0008000780020d42100e30407001e00780036
:1049f00040609000e14f500003003a001e00780034
:104a00008040eb00416098000e0807009040800055
:104a10000000e00003003200260807008a070700b4
:104a200008080700304080009e007800808f50000a
:104a30000e003a00904080000000e00004003200c8
:104a4000fa2b020000000000000000000700370001
:104a500011ea800060408000808f500002003a0020
:104a60000628ef00010037001f0207000080fa004f
:044a7000000006003c
:020000040000fa
:104a74001000fa0050079800610798007207980028
:104a8400de009000110798000000eb00200798005a
:104a94001e009000e0089000310798003e0090004e
:104aa4000000e000250032001e009000a06090008d
:104ab400014f9800ee0090001e00900029040700aa
:104ac4003e0090008000e9001e00900061089800fc
:104ad4000e489000e14f400010003a001e00900084
:104ae400400090000000e000110032001e00900021
:104af40068004000860007000000e0000c0032005f
:104b04007e0090000000e000090032007e0090006a
:104b14001100200001087800050037000e489000bd
:104b24000040e800804078001e009000216098005a
:104b340010002000000f7800020037000000eb0096
:104b4400000f78001e0078000080fa0000000600c4
:020000040000fa
:104b54000400fa0010079800d50707001e00900013
:104b6400b0609000014f78000b0037001e009000e9
:104b7400100890000000e0000b0032001e009000be
:104b840072004000620007000000e00001003200f3
:104b9400830807001e4fe9001e4078000004e0006f
:104ba400f2ff3c0001003700000000001e009000ee
:104bb40080c0eb0031609800a1070700bc07070024
:104bc4001e009000a0609000114798000d0037006f
:104bd4001e009000400090000000e0000d00320034
:104be4001e00900068004000490007000000e0003b
:104bf400010032006a0807001e4090000040e900ee
:104c0400104798001e4090000004e000f0ff3c00b4
:104c140001003700000000001e00900080c0eb007f
:104c240021609800860707000080fa000000060053
:020000040000fa
:104c34000a00fa0030079800410798009c07070013
:104c440071408000110798003e0090001000900011
:104c54009e00900000805000200798004e009000b5
:104c640010007800e10f400003003a000000eb0060
:104c7400000f7800220037003e009000900078007a
:104c8400c0408000808f5000080032003e00900039
:104c9400900090001e009000808f500003003e00a2
:104ca40010002000000f7800150037004e0090001f
:104cb400900078002e009000808f50000b0036008a
:104cc4004e009000900078002e00900080805000ec
:104cd4004e009000010878003e009000e1070700b4
:104ce4000000eb00000f7800050037004e00900034
:104cf4008000eb000108780010002000000f78000d
:104d04004f0707001e0078000080fa00000006002c
:020000040000fa
:104d14000600fa00200798002e0090003000900052
:104d240030009000100798001e0090006c004000b6
:104d3400ff020700004180000000e00016003a0076
:104d44001e0090000080e800f90207001e00900099
:104d5400b008900080408000808f5000030036002f
:104d64001e00900030089000804088001e009000d3
:104d74000081e8001e009000300890006a00b9002d
:104d840080007800e0ca21000080400082007800a2
:104d9400f8030700050037001e0090006c00400077
:104da4008000780080d32100f20307001e009000e9
:104db400b00890003040800030089000808f500090
:104dc4000500360010002000000f780010002000bd
:104dd400b0408800020037000000eb00000f7800ac
:0c4de4001e0078000080fa0000000600ad
:020000040000fa
:104df0000e00fa005007980061079800de0090004e
:104e0000110798000000eb00200798001e0090009a
:104e1000e0089000310798001e009000f008900014
:104e20003e009000808f5000220036001e0090004f
:104e3000b0609000014f98003e0090008000e800b4
:104e40001e009000610898000e489000e14f40005d
:104e500010003a001e009000100890000000e000d2
:104e6000110032001e00900072004000a9ff0700f0
:104e70000000e0000c0032006e0090000000e00036
:104e8000090032006e009000110020000108780037
:104e9000050037000e4890000040e8008040780090
:104ea0001e0090003160980010002000000f780074
:104eb000020037000000eb00000f78001e007800b1
:084ec0000080fa00000006006a
:020000040000fa
:104ec8000800fa002007980031079800f706070045
:104ed800304080009010900000109000e00f5000cb
:104ee800e08f58000c003a003040800011c0b30039
:104ef800416098003e0090000000e000060032008b
:104f0800110020003e00900087010700fa2b0200e4
:104f18000000000000000000c8060700e3060700c4
:104f2800304080000011900090119000028fbe0068
:104f38001e00be00e00f5000e08f58000f00320046
:104f48002e0090000000e000050032003240800092
:104f58006000b80000119800111198000700370090
:104f6800324080000082eb008082eb003e0042006d
:104f7800ae804a000011980011119800304080005e
:104f88008040eb0041609800ac0607001e00be00a0
:084f98000080fa000000060091
:020000040000fa
:104fa0000200fa00bd0107004af9070006003700b9
:104fb000404180000000e0002c00320040418000b1
:104fc0000000e90040418800404180006a00b900cb
:104fd00080007800c0cf21000080400010007800e1
:104fe0000000e000f2ff3200404180006a00b9009a
:104ff00080007800c0cf2100008f40001e007800a4
:1050000010009000900090001e00780011009800a1
:105010001e007800900090001e017800640041009e
:10502000808f500005003a001e00780010009000ac
:10503000900090001e007800110098001e0078007b
:105040001000900030009000304188003041800016
:105050001001780030418000c0089000304180008d
:105060000200010000000000010037000000000005
:085070000080fa0000000600b8
:020000040000fa
:105078001000fa00200798003107980042079800ae
:10508800530798006407980075079800600220008d
:1050980053010700000f78001e0078000000e000b0
:1050a8000e0032004e009000000040004c01070046
:1050b800800078001e007800410898001e007800e3
:1050c800400890000000e00004003a001e0078004c
:1050d8003c0707000000eb00000f78001e00780076
:1050e8000000e000120032004e0090008000eb004b
:1050f8000001eb00821f78009e0378007e03900079
:10510800ee0290005e0290000001be00be0090001a
:105118002e00900092f807008f87e9001e007800a3
:10512800ebfc070010002000100798000200370071
:105138000080eb00100798001e0090000080fa0025
:04514800000006005d
:020000040000fa
:10514c000800fa00300798000000eb00000f780010
:10515c00be009000110798000000eb00200798009b
:10516c001e009000830407000000e00026003200bf
:10517c00004180000000e0001e003a001e0090007c
:10518c00b00890003040800030089000808f5000b4
:10519c000200390010002000000f78001e00900063
:1051ac000080e800e00107001e009000b0089000ad
:1051bc0080408000808f5000030036001e0090005d
:1051cc0030089000804088001e0090000081e800ac
:1051dc001e009000300890006a00b9008000780032
:1051ec00e0ca21000080400082007800df02070046
:1051fc00050037001e0090006c0040008000780015
:10520c0080d32100d90207001e0078000080fa002c
:04521c000000060088
:020000040000fa
:105220000800fa0020079800310798003e0090001f
:1052300090007800110798001e009000e10f4000d8
:1052400004003a002e009000c0009000010f78008a
:105250000d0037002e00900064004000000f780021
:10526000030037001e00780090009000010f7800c6
:105270001e00780010009000900078001e00900042
:10528000808f5000f7ff36001e00780090009000dd
:105290003e009000110098003e0090001000900029
:1052a000be009000210098003e0090009e00780013
:1052b000210098001e007800be00900011009800a8
:1052c0003e009000ae009000410098002e0090003b
:1052d000100078008000e8002e009000010878009f
:0852e0000080fa000000060046
:020000040000fa
:1052e8000400fa00004180000000e00003003200e2
:1052f80010002000b0408800290037001628ef0071
:1053080081408000010f7800010037001e0fe9007e
:105318001e0078006a00b90080007800e0ca210009
:1053280000804000100078000000e000f7ff320025
:105338001e0078006a00b90080007800e0ca2100e9
:1053480000804000100798001e0090001000900098
:10535800900090001e009000110098001e00900020
:10536800900090001e00900064004000808f500064
:1053780005003a001e009000100090009000900078
:105388001e009000110098001e0090001000900070
:1053980030009000304088009e00780081408800ee
:0853a8000080fa00000006007d
:020000040000fa
:1053b0000800fa0020079800310798002e0090009e
:1053c00050089000e1162000810f500011003200bb
:1053d000f1162000810f50001a0032000000e0009a
:1053e00022003a00304280008e80e8000081eb000d
:1053f000daf50700000f78001e007800e40f400087
:1054000009003a002e009000e11620005108980093
:1054100016003700304280008e80e8000001eb006b
:10542000cef50700000f78001e007800e50f400061
:1054300006003a002e009000f11620005108980056
:105440000a00370010002000000f78001e007800ce
:10545000e10f5000020032004828ef00e1ff370062
